{
	"data": {
		"bytecode": {
			"linkReferences": {},
			"object": "608060405234801561001057600080fd5b506002805460ff191690556100274261012c61002f565b600055610056565b8082018082111561005057634e487b7160e01b600052601160045260246000fd5b92915050565b6105c1806100656000396000f3fe6080604052600436106100595760003560e01c806334ccba4114610070578063455dca23146100945780635ec01e4d146100a7578063688e3467146100ba578063d50fac4914610068578063fa03829b146100e157610068565b366100685761006661010e565b005b61006661010e565b34801561007c57600080fd5b506001545b6040519081526020015b60405180910390f35b3480156100a057600080fd5b5047610081565b3480156100b357600080fd5b5044610081565b3480156100c657600080fd5b506002546100d49060ff1681565b60405161008b91906104b0565b3480156100ed57600080fd5b506100f6610304565b6040516001600160a01b03909116815260200161008b565b4260005411156102cd57662386f26fc100003410156101a45760405162461bcd60e51b815260206004820152604160248201527f43616e74696461642070617274696369706163696f6e20696e636f727265637460448201527f6120646562652073657220646520616c206d656e6f7320302e303120657468656064820152603960f91b608482015260a4015b60405180910390fd5b600060025460ff1660018111156101bd576101bd61049a565b146102025760405162461bcd60e51b81526020600482015260156024820152746c6f74657269612079612066696e616c697a61646160581b604482015260640161019b565b6000610215662386f26fc1000034610504565b905060005b81811015610275576001805480820182556000919091527fb10e2d527612073b26eecdfd717e6a320cf44b4afac2b0732d9fcbe2b7fa0cf60180546001600160a01b031916331790558061026d81610518565b91505061021a565b50600061028982662386f26fc10000610531565b90506000610297823461054e565b604051909150339082156108fc029083906000818181858888f193505050501580156102c7573d6000803e3d6000fd5b50505050565b60405133903480156108fc02916000818181858888f193505050501580156102f9573d6000803e3d6000fd5b50610302610379565b565b6000600160025460ff16600181111561031f5761031f61049a565b146103645760405162461bcd60e51b81526020600482015260156024820152746c6f7465726961206e6f2066696e616c697a61646160581b604482015260640161019b565b5060025461010090046001600160a01b031690565b600060025460ff1660018111156103925761039261049a565b146103cf5760405162461bcd60e51b815260206004820152600d60248201526c79612066696e616c697a61646f60981b604482015260640161019b565b6002805460ff1916600190811790915554600090446103ee9190610561565b90506001818154811061040357610403610575565b600091825260209091200154600280546001600160a01b0390921661010002610100600160a81b031990921691909117905561043d610440565b50565b60025461010090046001600160a01b031661045a57600080fd5b6002546040516001600160a01b0361010090920491909116904780156108fc02916000818181858888f1935050505015801561043d573d6000803e3d6000fd5b634e487b7160e01b600052602160045260246000fd5b60208101600283106104d257634e487b7160e01b600052602160045260246000fd5b91905290565b634e487b7160e01b600052601260045260246000fd5b634e487b7160e01b600052601160045260246000fd5b600082610513576105136104d8565b500490565b60006001820161052a5761052a6104ee565b5060010190565b8082028115828204841417610548576105486104ee565b92915050565b81810381811115610548576105486104ee565b600082610570576105706104d8565b500690565b634e487b7160e01b600052603260045260246000fdfea264697066735822122037a89e1e49860148579eefc6bde349469b2361280c82d005a3053a8edf219a9564736f6c63430008120033",
			"opcodes": "PUSH1 0x80 PUSH1 0x40 MSTORE CALLVALUE DUP1 ISZERO PUSH2 0x10 JUMPI PUSH1 0x0 DUP1 REVERT JUMPDEST POP PUSH1 0x2 DUP1 SLOAD PUSH1 0xFF NOT AND SWAP1 SSTORE PUSH2 0x27 TIMESTAMP PUSH2 0x12C PUSH2 0x2F JUMP JUMPDEST PUSH1 0x0 SSTORE PUSH2 0x56 JUMP JUMPDEST DUP1 DUP3 ADD DUP1 DUP3 GT ISZERO PUSH2 0x50 JUMPI PUSH4 0x4E487B71 PUSH1 0xE0 SHL PUSH1 0x0 MSTORE PUSH1 0x11 PUSH1 0x4 MSTORE PUSH1 0x24 PUSH1 0x0 REVERT JUMPDEST SWAP3 SWAP2 POP POP JUMP JUMPDEST PUSH2 0x5C1 DUP1 PUSH2 0x65 PUSH1 0x0 CODECOPY PUSH1 0x0 RETURN INVALID PUSH1 0x80 PUSH1 0x40 MSTORE PUSH1 0x4 CALLDATASIZE LT PUSH2 0x59 JUMPI PUSH1 0x0 CALLDATALOAD PUSH1 0xE0 SHR DUP1 PUSH4 0x34CCBA41 EQ PUSH2 0x70 JUMPI DUP1 PUSH4 0x455DCA23 EQ PUSH2 0x94 JUMPI DUP1 PUSH4 0x5EC01E4D EQ PUSH2 0xA7 JUMPI DUP1 PUSH4 0x688E3467 EQ PUSH2 0xBA JUMPI DUP1 PUSH4 0xD50FAC49 EQ PUSH2 0x68 JUMPI DUP1 PUSH4 0xFA03829B EQ PUSH2 0xE1 JUMPI PUSH2 0x68 JUMP JUMPDEST CALLDATASIZE PUSH2 0x68 JUMPI PUSH2 0x66 PUSH2 0x10E JUMP JUMPDEST STOP JUMPDEST PUSH2 0x66 PUSH2 0x10E JUMP JUMPDEST CALLVALUE DUP1 ISZERO PUSH2 0x7C JUMPI PUSH1 0x0 DUP1 REVERT JUMPDEST POP PUSH1 0x1 SLOAD JUMPDEST PUSH1 0x40 MLOAD SWAP1 DUP2 MSTORE PUSH1 0x20 ADD JUMPDEST PUSH1 0x40 MLOAD DUP1 SWAP2 SUB SWAP1 RETURN JUMPDEST CALLVALUE DUP1 ISZERO PUSH2 0xA0 JUMPI PUSH1 0x0 DUP1 REVERT JUMPDEST POP SELFBALANCE PUSH2 0x81 JUMP JUMPDEST CALLVALUE DUP1 ISZERO PUSH2 0xB3 JUMPI PUSH1 0x0 DUP1 REVERT JUMPDEST POP PREVRANDAO PUSH2 0x81 JUMP JUMPDEST CALLVALUE DUP1 ISZERO PUSH2 0xC6 JUMPI PUSH1 0x0 DUP1 REVERT JUMPDEST POP PUSH1 0x2 SLOAD PUSH2 0xD4 SWAP1 PUSH1 0xFF AND DUP2 JUMP JUMPDEST PUSH1 0x40 MLOAD PUSH2 0x8B SWAP2 SWAP1 PUSH2 0x4B0 JUMP JUMPDEST CALLVALUE DUP1 ISZERO PUSH2 0xED JUMPI PUSH1 0x0 DUP1 REVERT JUMPDEST POP PUSH2 0xF6 PUSH2 0x304 JUMP JUMPDEST PUSH1 0x40 MLOAD PUSH1 0x1 PUSH1 0x1 PUSH1 0xA0 SHL SUB SWAP1 SWAP2 AND DUP2 MSTORE PUSH1 0x20 ADD PUSH2 0x8B JUMP JUMPDEST TIMESTAMP PUSH1 0x0 SLOAD GT ISZERO PUSH2 0x2CD JUMPI PUSH7 0x2386F26FC10000 CALLVALUE LT ISZERO PUSH2 0x1A4 JUMPI PUSH1 0x40 MLOAD PUSH3 0x461BCD PUSH1 0xE5 SHL DUP2 MSTORE PUSH1 0x20 PUSH1 0x4 DUP3 ADD MSTORE PUSH1 0x41 PUSH1 0x24 DUP3 ADD MSTORE PUSH32 0x43616E74696461642070617274696369706163696F6E20696E636F7272656374 PUSH1 0x44 DUP3 ADD MSTORE PUSH32 0x6120646562652073657220646520616C206D656E6F7320302E30312065746865 PUSH1 0x64 DUP3 ADD MSTORE PUSH1 0x39 PUSH1 0xF9 SHL PUSH1 0x84 DUP3 ADD MSTORE PUSH1 0xA4 ADD JUMPDEST PUSH1 0x40 MLOAD DUP1 SWAP2 SUB SWAP1 REVERT JUMPDEST PUSH1 0x0 PUSH1 0x2 SLOAD PUSH1 0xFF AND PUSH1 0x1 DUP2 GT ISZERO PUSH2 0x1BD JUMPI PUSH2 0x1BD PUSH2 0x49A JUMP JUMPDEST EQ PUSH2 0x202 JUMPI PUSH1 0x40 MLOAD PUSH3 0x461BCD PUSH1 0xE5 SHL DUP2 MSTORE PUSH1 0x20 PUSH1 0x4 DUP3 ADD MSTORE PUSH1 0x15 PUSH1 0x24 DUP3 ADD MSTORE PUSH21 0x6C6F74657269612079612066696E616C697A616461 PUSH1 0x58 SHL PUSH1 0x44 DUP3 ADD MSTORE PUSH1 0x64 ADD PUSH2 0x19B JUMP JUMPDEST PUSH1 0x0 PUSH2 0x215 PUSH7 0x2386F26FC10000 CALLVALUE PUSH2 0x504 JUMP JUMPDEST SWAP1 POP PUSH1 0x0 JUMPDEST DUP2 DUP2 LT ISZERO PUSH2 0x275 JUMPI PUSH1 0x1 DUP1 SLOAD DUP1 DUP3 ADD DUP3 SSTORE PUSH1 0x0 SWAP2 SWAP1 SWAP2 MSTORE PUSH32 0xB10E2D527612073B26EECDFD717E6A320CF44B4AFAC2B0732D9FCBE2B7FA0CF6 ADD DUP1 SLOAD PUSH1 0x1 PUSH1 0x1 PUSH1 0xA0 SHL SUB NOT AND CALLER OR SWAP1 SSTORE DUP1 PUSH2 0x26D DUP2 PUSH2 0x518 JUMP JUMPDEST SWAP2 POP POP PUSH2 0x21A JUMP JUMPDEST POP PUSH1 0x0 PUSH2 0x289 DUP3 PUSH7 0x2386F26FC10000 PUSH2 0x531 JUMP JUMPDEST SWAP1 POP PUSH1 0x0 PUSH2 0x297 DUP3 CALLVALUE PUSH2 0x54E JUMP JUMPDEST PUSH1 0x40 MLOAD SWAP1 SWAP2 POP CALLER SWAP1 DUP3 ISZERO PUSH2 0x8FC MUL SWAP1 DUP4 SWAP1 PUSH1 0x0 DUP2 DUP2 DUP2 DUP6 DUP9 DUP9 CALL SWAP4 POP POP POP POP ISZERO DUP1 ISZERO PUSH2 0x2C7 JUMPI RETURNDATASIZE PUSH1 0x0 DUP1 RETURNDATACOPY RETURNDATASIZE PUSH1 0x0 REVERT JUMPDEST POP POP POP POP JUMP JUMPDEST PUSH1 0x40 MLOAD CALLER SWAP1 CALLVALUE DUP1 ISZERO PUSH2 0x8FC MUL SWAP2 PUSH1 0x0 DUP2 DUP2 DUP2 DUP6 DUP9 DUP9 CALL SWAP4 POP POP POP POP ISZERO DUP1 ISZERO PUSH2 0x2F9 JUMPI RETURNDATASIZE PUSH1 0x0 DUP1 RETURNDATACOPY RETURNDATASIZE PUSH1 0x0 REVERT JUMPDEST POP PUSH2 0x302 PUSH2 0x379 JUMP JUMPDEST JUMP JUMPDEST PUSH1 0x0 PUSH1 0x1 PUSH1 0x2 SLOAD PUSH1 0xFF AND PUSH1 0x1 DUP2 GT ISZERO PUSH2 0x31F JUMPI PUSH2 0x31F PUSH2 0x49A JUMP JUMPDEST EQ PUSH2 0x364 JUMPI PUSH1 0x40 MLOAD PUSH3 0x461BCD PUSH1 0xE5 SHL DUP2 MSTORE PUSH1 0x20 PUSH1 0x4 DUP3 ADD MSTORE PUSH1 0x15 PUSH1 0x24 DUP3 ADD MSTORE PUSH21 0x6C6F7465726961206E6F2066696E616C697A616461 PUSH1 0x58 SHL PUSH1 0x44 DUP3 ADD MSTORE PUSH1 0x64 ADD PUSH2 0x19B JUMP JUMPDEST POP PUSH1 0x2 SLOAD PUSH2 0x100 SWAP1 DIV PUSH1 0x1 PUSH1 0x1 PUSH1 0xA0 SHL SUB AND SWAP1 JUMP JUMPDEST PUSH1 0x0 PUSH1 0x2 SLOAD PUSH1 0xFF AND PUSH1 0x1 DUP2 GT ISZERO PUSH2 0x392 JUMPI PUSH2 0x392 PUSH2 0x49A JUMP JUMPDEST EQ PUSH2 0x3CF JUMPI PUSH1 0x40 MLOAD PUSH3 0x461BCD PUSH1 0xE5 SHL DUP2 MSTORE PUSH1 0x20 PUSH1 0x4 DUP3 ADD MSTORE PUSH1 0xD PUSH1 0x24 DUP3 ADD MSTORE PUSH13 0x79612066696E616C697A61646F PUSH1 0x98 SHL PUSH1 0x44 DUP3 ADD MSTORE PUSH1 0x64 ADD PUSH2 0x19B JUMP JUMPDEST PUSH1 0x2 DUP1 SLOAD PUSH1 0xFF NOT AND PUSH1 0x1 SWAP1 DUP2 OR SWAP1 SWAP2 SSTORE SLOAD PUSH1 0x0 SWAP1 PREVRANDAO PUSH2 0x3EE SWAP2 SWAP1 PUSH2 0x561 JUMP JUMPDEST SWAP1 POP PUSH1 0x1 DUP2 DUP2 SLOAD DUP2 LT PUSH2 0x403 JUMPI PUSH2 0x403 PUSH2 0x575 JUMP JUMPDEST PUSH1 0x0 SWAP2 DUP3 MSTORE PUSH1 0x20 SWAP1 SWAP2 KECCAK256 ADD SLOAD PUSH1 0x2 DUP1 SLOAD PUSH1 0x1 PUSH1 0x1 PUSH1 0xA0 SHL SUB SWAP1 SWAP3 AND PUSH2 0x100 MUL PUSH2 0x100 PUSH1 0x1 PUSH1 0xA8 SHL SUB NOT SWAP1 SWAP3 AND SWAP2 SWAP1 SWAP2 OR SWAP1 SSTORE PUSH2 0x43D PUSH2 0x440 JUMP JUMPDEST POP JUMP JUMPDEST PUSH1 0x2 SLOAD PUSH2 0x100 SWAP1 DIV PUSH1 0x1 PUSH1 0x1 PUSH1 0xA0 SHL SUB AND PUSH2 0x45A JUMPI PUSH1 0x0 DUP1 REVERT JUMPDEST PUSH1 0x2 SLOAD PUSH1 0x40 MLOAD PUSH1 0x1 PUSH1 0x1 PUSH1 0xA0 SHL SUB PUSH2 0x100 SWAP1 SWAP3 DIV SWAP2 SWAP1 SWAP2 AND SWAP1 SELFBALANCE DUP1 ISZERO PUSH2 0x8FC MUL SWAP2 PUSH1 0x0 DUP2 DUP2 DUP2 DUP6 DUP9 DUP9 CALL SWAP4 POP POP POP POP ISZERO DUP1 ISZERO PUSH2 0x43D JUMPI RETURNDATASIZE PUSH1 0x0 DUP1 RETURNDATACOPY RETURNDATASIZE PUSH1 0x0 REVERT JUMPDEST PUSH4 0x4E487B71 PUSH1 0xE0 SHL PUSH1 0x0 MSTORE PUSH1 0x21 PUSH1 0x4 MSTORE PUSH1 0x24 PUSH1 0x0 REVERT JUMPDEST PUSH1 0x20 DUP2 ADD PUSH1 0x2 DUP4 LT PUSH2 0x4D2 JUMPI PUSH4 0x4E487B71 PUSH1 0xE0 SHL PUSH1 0x0 MSTORE PUSH1 0x21 PUSH1 0x4 MSTORE PUSH1 0x24 PUSH1 0x0 REVERT JUMPDEST SWAP2 SWAP1 MSTORE SWAP1 JUMP JUMPDEST PUSH4 0x4E487B71 PUSH1 0xE0 SHL PUSH1 0x0 MSTORE PUSH1 0x12 PUSH1 0x4 MSTORE PUSH1 0x24 PUSH1 0x0 REVERT JUMPDEST PUSH4 0x4E487B71 PUSH1 0xE0 SHL PUSH1 0x0 MSTORE PUSH1 0x11 PUSH1 0x4 MSTORE PUSH1 0x24 PUSH1 0x0 REVERT JUMPDEST PUSH1 0x0 DUP3 PUSH2 0x513 JUMPI PUSH2 0x513 PUSH2 0x4D8 JUMP JUMPDEST POP DIV SWAP1 JUMP JUMPDEST PUSH1 0x0 PUSH1 0x1 DUP3 ADD PUSH2 0x52A JUMPI PUSH2 0x52A PUSH2 0x4EE JUMP JUMPDEST POP PUSH1 0x1 ADD SWAP1 JUMP JUMPDEST DUP1 DUP3 MUL DUP2 ISZERO DUP3 DUP3 DIV DUP5 EQ OR PUSH2 0x548 JUMPI PUSH2 0x548 PUSH2 0x4EE JUMP JUMPDEST SWAP3 SWAP2 POP POP JUMP JUMPDEST DUP2 DUP2 SUB DUP2 DUP2 GT ISZERO PUSH2 0x548 JUMPI PUSH2 0x548 PUSH2 0x4EE JUMP JUMPDEST PUSH1 0x0 DUP3 PUSH2 0x570 JUMPI PUSH2 0x570 PUSH2 0x4D8 JUMP JUMPDEST POP MOD SWAP1 JUMP JUMPDEST PUSH4 0x4E487B71 PUSH1 0xE0 SHL PUSH1 0x0 MSTORE PUSH1 0x32 PUSH1 0x4 MSTORE PUSH1 0x24 PUSH1 0x0 REVERT INVALID LOG2 PUSH5 0x6970667358 0x22 SLT KECCAK256 CALLDATACOPY 0xA8 SWAP15 0x1E 0x49 DUP7 ADD BASEFEE JUMPI SWAP15 0xEF 0xC6 0xBD 0xE3 0x49 CHAINID SWAP12 0x23 PUSH2 0x280C DUP3 0xD0 SDIV LOG3 SDIV GASPRICE DUP15 0xDF 0x21 SWAP11 SWAP6 PUSH5 0x736F6C6343 STOP ADDMOD SLT STOP CALLER "
		},
		"gasEstimates": {
			"creation": {
				"codeDepositCost": "294600",
				"executionCost": "46744",
				"totalCost": "341344"
			},
			"external": {
				"": "infinite",
				"estado()": "2395",
				"getCantidadParticipaciones()": "2248",
				"getGanador()": "4605",
				"get_bote_acumulado()": "183",
				"participar()": "infinite",
				"random()": "202"
			},
			"internal": {
				"enviarPremio()": "infinite",
				"finalizarLoteria()": "infinite"
			}
		},
		"methodIdentifiers": {
			"estado()": "688e3467",
			"getCantidadParticipaciones()": "34ccba41",
			"getGanador()": "fa03829b",
			"get_bote_acumulado()": "455dca23",
			"participar()": "d50fac49",
			"random()": "5ec01e4d"
		}
	},
	"abi": [
		{
			"inputs": [],
			"stateMutability": "nonpayable",
			"type": "constructor"
		},
		{
			"stateMutability": "payable",
			"type": "fallback"
		},
		{
			"inputs": [],
			"name": "estado",
			"outputs": [
				{
					"internalType": "enum Lottery.Estado",
					"name": "",
					"type": "uint8"
				}
			],
			"stateMutability": "view",
			"type": "function"
		},
		{
			"inputs": [],
			"name": "getCantidadParticipaciones",
			"outputs": [
				{
					"internalType": "uint256",
					"name": "",
					"type": "uint256"
				}
			],
			"stateMutability": "view",
			"type": "function"
		},
		{
			"inputs": [],
			"name": "getGanador",
			"outputs": [
				{
					"internalType": "address payable",
					"name": "",
					"type": "address"
				}
			],
			"stateMutability": "view",
			"type": "function"
		},
		{
			"inputs": [],
			"name": "get_bote_acumulado",
			"outputs": [
				{
					"internalType": "uint256",
					"name": "",
					"type": "uint256"
				}
			],
			"stateMutability": "view",
			"type": "function"
		},
		{
			"inputs": [],
			"name": "participar",
			"outputs": [],
			"stateMutability": "payable",
			"type": "function"
		},
		{
			"inputs": [],
			"name": "random",
			"outputs": [
				{
					"internalType": "uint256",
					"name": "",
					"type": "uint256"
				}
			],
			"stateMutability": "view",
			"type": "function"
		},
		{
			"stateMutability": "payable",
			"type": "receive"
		}
	]
}